:10000000FFC000000C94C3100C94FF100C943B1123
:100010000C9477110C94B3110C94EF110C942B12D7
:100020000C9467121DC100001BC1000019C1000023
:1000300017C100000C944C1013C1000011C1000046
:100040000FC100000DC100000BC1000009C100007C
:1000500007C1000005C1000003C100000C94A312F9
:10006000FFC000004EC400007FC40000F9C00000C3
:10007000F7C00000F5C00000F3C00000F1C00000B0
:10008000EFC00000EDC00000EBC00000E9C00000C0
:10009000F6C4000027C50000E3C00000E1C0000076
:1000A000DFC00000DDC00000DBC00000D9C00000E0
:1000B000D7C00000D5C00000D3C000000C94500C85
:1000C000CFC00000CDC00000CBC0000096C500002E
:1000D000C7C50000C5C000004EC600007FC60000B6
:1000E000BFC0000024142E14061410141A14A614F1
:1000F000381442144C14561460146A1474147E1488
:10010000A614881492149C140200002200250028D2
:10011000002B002E00310034000201000005010810
:10012000010B01050505050705080808080202027C
:10013000020A0A0808040404040101010101010182
:10014000010303030303030303040707070C0C0C59
:100150000C0C0C0C0C020202020606060606060631
:10016000060B0B0B0B0B0B0B0B01021020200808CE
:100170001020401020408002010201080402010109
:1001800002040810204080804020100804020180F2
:100190000402018040201008040201080402010149
:1001A0000204081020408001020408102040800052
:1001B000000A0B02090C0D0E0807030401000000E1
:1001C000000000000000000000000000000000002F
:1001D00000000000000000000000001211100000EC
:1001E000000000000000000000000000000000000F
:1001F0000000000000003305F105AF066F0740085E
:1002000011241FBECFEFD1E2DEBFCDBF00E00CBF97
:1002100012E0A0E0B2E0E4EEFAE200E00BBF02C0C0
:1002200007900D92A434B107D9F724E1A4E4B2E019
:1002300001C01D92A53FB207E1F711E0C0E0D2E096
:1002400000E006C022970109FE010BBF0E9458156D
:10025000C63FD10780E00807A9F725D70C94701591
:10026000CFCECF93DF93CDB7DEB70E945C15CF938F
:10027000DF93CDB7DEB787EE94E0009749F080E0DA
:1002800090E0009729F0A3D3882311F081E001C00A
:1002900080E0882311F00E94000085EA95E0009735
:1002A00049F080E090E0009729F04FD4882311F0C6
:1002B00081E001C080E0882311F00E94000083E605
:1002C00096E0009749F080E090E0009729F0FBD499
:1002D000882311F081E001C080E0882311F00E94A2
:1002E000000081E297E0009749F080E090E00097FD
:1002F00029F0A7D5882311F081E001C080E0882390
:1003000011F00E940000DF91CF910895CF93DF9309
:1003100000D0CDB7DEB79B838A838A819B81FC01A5
:10032000848D882F90E02A813B81820F931F835A0E
:100330009F4FFC01808189838A819B81FC01848D90
:10034000882F90E001968F739078992324F4019779
:10035000806C9F6F0196282F8A819B81FC01248FDE
:100360008A819B81FC01868997892981FC012083F0
:100370008A819B81FC01808991892A813B81F901D5
:1003800020893189F90120812064FC0120838A8140
:100390009B81FC01238D8A819B81FC01948D81E0EE
:1003A000291709F080E0882379F08A819B81FC017C
:1003B000828993892A813B81F90122893389F90154
:1003C00020812F7DFC0120830F900F900F90DF91F3
:1003D000CF910895CF93DF931F921F92CDB7DEB7D1
:1003E0009A83898389819A81FC01818D882F90E08D
:1003F0009C01205C3F4F89819A81FC01828D882F6E
:1004000090E0A901481B590BCA018F7399270F90DF
:100410000F90DF91CF910895CF93DF931F921F929A
:10042000CDB7DEB79A83898389819A81FC01218DBA
:1004300089819A81FC01928D81E0291709F080E081
:10044000882319F08FEF9FEF0FC089819A81FC01FB
:10045000828D882F90E029813A81820F931F4D96DB
:10046000FC018081882F90E00F900F90DF91CF9159
:100470000895CF93DF9300D0CDB7DEB79B838A83F7
:100480008A819B81FC01218D8A819B81FC01928D57
:1004900081E0291709F080E0882319F08FEF9FEFA2
:1004A0001CC08A819B81FC01828D882F90E02A816B
:1004B0003B81820F931F4D96FC01808189838A8145
:1004C0009B81FC01828D8F5F282F2F738A819B81F6
:1004D000FC01228F8981882F90E00F900F900F9060
:1004E000DF91CF910895CF93DF931F921F92CDB7E5
:1004F000DEB79A83898389819A81FC01908D81E09E
:100500008927882309F04DC02CC08FE590E0FC01BD
:10051000808188237CF089819A81FC01828993897A
:10052000FC018081882F90E080729927009711F05C
:1005300081E001C080E08823A1F089819A81FC01DB
:1005400080899189FC018081882F90E080729927B1
:1005500021E0009709F420E0222319F089819A8193
:10056000D5DE89819A81FC0182899389FC01808191
:10057000882F90E080729927009769F489819A8189
:10058000FC0180899189FC018081882F90E0807432
:100590009927009711F481E001C080E0882309F0D9
:1005A000B4CF0F900F90DF91CF910895CF93DF9349
:1005B00000D01F92CDB7DEB79B838A836C838A817C
:1005C0009B81FC01238D8A819B81FC01848D2817EE
:1005D00079F48A819B81FC0180899189FC01808169
:1005E000882F90E080729927009711F081E001C078
:1005F00080E08823D1F08A819B81FC0186899789DC
:100600002C81FC0120838A819B81FC018089918956
:100610002A813B81F90120893189F90120812064F7
:10062000FC01208381E090E064C08A819B81FC0111
:10063000838D882F90E001968F739078992324F40E
:100640000197806C9F6F019689831EC08FE590E0B3
:10065000FC0180818095881F8827881F8823A1F04E
:100660008A819B81FC0180899189FC018081882F8E
:1006700090E08072992721E0009709F420E022237E
:1006800019F08A819B8142DE8A819B81FC01248D45
:1006900081E09981291709F080E08823B9F68A81E1
:1006A0009B81FC01838D882F90E02A813B81820F02
:1006B000931F835A9F4F2C81FC0120838A819B8149
:1006C0002981FC01238F8A819B81FC018289938986
:1006D0002A813B81F90122893389F9012081206235
:1006E000FC0120838A819B8121E0FC01208F81E035
:1006F00090E00F900F900F900F90DF91CF910895A1
:10070000CF93DF931F921F92CDB7DEB79A83898371
:1007100089819A812FE332E0FC0131832083898132
:100720009A81FC01138212820F900F90DF91CF917A
:100730000895CF93DF931F921F92CDB7DEB79A83B0
:10074000898389819A81DCDF89819A8123E232E081
:10075000FC013183208329813A8188EE93E0A0E077
:10076000B0E0F90184839583A683B7830F900F903F
:10077000DF91CF910895CF92DF92EF92FF920F9386
:100780001F93CF93DF93CDB7DEB72E970FB6F894B4
:10079000DEBF0FBECDBF9A8389837C836B835E836C
:1007A0004D8338872F831A870987FC86EB86DE8680
:1007B000CD8689819A81BDDF89819A8123E132E0EA
:1007C000FC013183208389819A812B813C81FC014A
:1007D0003587248789819A812D813E81FC01378765
:1007E000268789819A812F813885FC01318B208B66
:1007F00089819A8129853A85FC01338B228B8981F5
:100800009A812B853C85FC01358B248B89819A81CB
:100810002D853E85FC01378B268B89819A81FC01D1
:10082000118E89819A81FC01128E89819A81FC0145
:10083000138E89819A81FC01148E2E960FB6F8943E
:10084000DEBF0FBECDBFDF91CF911F910F91FF9003
:10085000EF90DF90CF900895CF93DF9300D01F9259
:10086000CDB7DEB79C838B838B819C81FC01808913
:100870009189FC018081882F90E08470992721E084
:10088000009709F020E0222371F18B819C81FC010B
:1008900086899789FC01808189838B819C81FC01F9
:1008A000818D8F5F8F738A838B819C81FC01228D68
:1008B00081E09A81291709F480E0882399F08B81DF
:1008C0009C81FC01818D882F90E02B813C81820FDF
:1008D000931F4D962981FC0120838B819C812A8165
:1008E000FC01218F07C08B819C81FC01868997893F
:1008F000FC0180810F900F900F900F90DF91CF91AE
:1009000008951F920F9200905F000F9211240090A3
:100910005B000F922F933F934F935F936F937F935F
:100920008F939F93AF93BF93EF93FF93CF93DF93F7
:10093000CDB7DEB784E492E08FDFDF91CF91FF91F6
:10094000EF91BF91AF919F918F917F916F915F9147
:100950004F913F912F910F9000925B000F9000926A
:100960005F000F901F9018951F920F9200905F00EC
:100970000F92112400905B000F922F933F934F939F
:100980005F936F937F938F939F93AF93BF93EF93F7
:10099000FF93CF93DF93CDB7DEB784E492E0B6DC6C
:1009A000DF91CF91FF91EF91BF91AF919F918F9187
:1009B0007F916F915F914F913F912F910F90009296
:1009C0005B000F9000925F000F901F901895CF93DF
:1009D000DF93CDB7DEB784E492E0FCDC21E0009742
:1009E00009F420E0822FDF91CF910895CF92DF921A
:1009F000EF92FF920F931F93CF93DF9300D01F923C
:100A0000CDB7DEB79A8389837C836B8389819A8192
:100A100081309105D9F48B819C818F3F2FEF920714
:100A2000A9F40F2EF6ECCF2ED12CF02D0F2EF2ECD8
:100A3000EF2EF12CF02D01EC10E020EC30E044EC36
:100A400050E065EC70E084E492E095DE0F900F904A
:100A50000F900F90DF91CF911F910F91FF90EF902A
:100A6000DF90CF900895CF93DF93CDB7DEB76FEFD0
:100A70007FEF81E090E0BADFDF91CF9108951F9280
:100A80000F9200905F000F92112400905B000F9274
:100A90002F933F934F935F936F937F938F939F9386
:100AA000AF93BF93EF93FF93CF93DF93CDB7DEB7B1
:100AB00081EE92E0D1DEDF91CF91FF91EF91BF9176
:100AC000AF919F918F917F916F915F914F913F91E6
:100AD0002F910F9000925B000F9000925F000F909B
:100AE0001F9018951F920F9200905F000F92112493
:100AF00000905B000F922F933F934F935F936F9300
:100B00007F938F939F93AF93BF93EF93FF93CF9375
:100B1000DF93CDB7DEB781EE92E0F8DBDF91CF91C6
:100B2000FF91EF91BF91AF919F918F917F916F91C5
:100B30005F914F913F912F910F9000925B000F902A
:100B400000925F000F901F901895CF93DF93CDB761
:100B5000DEB781EE92E03EDC21E0009709F420E070
:100B6000822FDF91CF910895CF92DF92EF92FF9283
:100B70000F931F93CF93DF9300D01F92CDB7DEB7B3
:100B80009A8389837C836B8389819A8181309105E3
:100B9000D9F48B819C818F3F2FEF9207A9F40F2E00
:100BA000FEECCF2ED12CF02D0F2EFAECEF2EF12CE7
:100BB000F02D09EC10E028EC30E04CEC50E06DEC4E
:100BC00070E081EE92E0D7DD0F900F900F900F90C4
:100BD000DF91CF911F910F91FF90EF90DF90CF9019
:100BE0000895CF93DF93CDB7DEB76FEF7FEF81E04E
:100BF00090E0BADFDF91CF9108951F920F9200909D
:100C00005F000F92112400905B000F922F933F938F
:100C10004F935F936F937F938F939F93AF93BF9304
:100C2000EF93FF93CF93DF93CDB7DEB78EE793E0DB
:100C300013DEDF91CF91FF91EF91BF91AF919F9123
:100C40008F917F916F915F914F913F912F910F9075
:100C500000925B000F9000925F000F901F9018951C
:100C60001F920F9200905F000F92112400905B0082
:100C70000F922F933F934F935F936F937F938F9335
:100C80009F93AF93BF93EF93FF93CF93DF93CDB732
:100C9000DEB78EE793E03ADBDF91CF91FF91EF91E2
:100CA000BF91AF919F918F917F916F915F914F9184
:100CB0003F912F910F9000925B000F9000925F0088
:100CC0000F901F901895CF93DF93CDB7DEB78EE7C7
:100CD00093E080DB21E0009709F420E0822FDF9190
:100CE000CF910895CF92DF92EF92FF920F931F93CF
:100CF000CF93DF9300D01F92CDB7DEB79A8389835D
:100D00007C836B8389819A8181309105D9F48B81B1
:100D10009C818F3F2FEF9207A9F40F2EF6EDCF2E77
:100D2000D12CF02D0F2EF2EDEF2EF12CF02D01ED48
:100D300010E020ED30E044ED50E065ED70E08EE72E
:100D400093E019DD0F900F900F900F90DF91CF91EE
:100D50001F910F91FF90EF90DF90CF900895CF9368
:100D6000DF93CDB7DEB76FEF7FEF81E090E0BADFC2
:100D7000DF91CF9108951F920F9200905F000F9224
:100D8000112400905B000F922F933F934F935F933A
:100D90006F937F938F939F93AF93BF93EF93FF9343
:100DA000CF93DF93CDB7DEB78BE194E055DDDF91D4
:100DB000CF91FF91EF91BF91AF919F918F917F91D3
:100DC0006F915F914F913F912F910F9000925B0037
:100DD0000F9000925F000F901F9018951F920F9236
:100DE00000905F000F92112400905B000F922F93F0
:100DF0003F934F935F936F937F938F939F93AF93A3
:100E0000BF93EF93FF93CF93DF93CDB7DEB78BE123
:100E100094E07CDADF91CF91FF91EF91BF91AF9198
:100E20009F918F917F916F915F914F913F912F9102
:100E30000F9000925B000F9000925F000F901F9048
:100E40001895CF93DF93CDB7DEB78BE194E0C2DA8C
:100E500021E0009709F420E0822FDF91CF910895DF
:100E6000CF92DF92EF92FF920F931F93CF93DF9376
:100E700000D01F92CDB7DEB79A8389837C836B83C2
:100E800089819A8181309105E9F48B819C818F3F22
:100E90002FEF9207B9F40F2EF6E3CF2EDD24D39473
:100EA000F02D0F2EF2E3EF2EFF24F394F02D01E34B
:100EB00011E020E331E044E351E065E371E08BE1D0
:100EC00094E059DC0F900F900F900F90DF91CF912D
:100ED0001F910F91FF90EF90DF90CF900895CF93E7
:100EE000DF93CDB7DEB76FEF7FEF81E090E0B8DF43
:100EF000DF91CF910895CF93DF931F921F92CDB7CB
:100F0000DEB79A83898389819A8129E332E0FC01E3
:100F1000318320830F900F90DF91CF9108950F932D
:100F2000CF93DF9300D000D0CDB7DEB79A8389830B
:100F30006B834C832D830E8389819A81DCDF8981C9
:100F40009A8123E332E0FC013183208389819A81F5
:100F50002B81FC01228389819A812C81FC012383CE
:100F600089819A812D81FC01248389819A812E8136
:100F7000FC01258326960FB6F894DEBF0FBECDBFC9
:100F8000DF91CF910F910895CF93DF93CDB7DEB767
:100F900028970FB6F894DEBF0FBECDBF9E838D831A
:100FA00078876F831A8219821C821B8224C02D814C
:100FB0003E818B819C81820F931F0296FC012081D0
:100FC0008F8198854AE050E0622F82D629813A814C
:100FD000820F931F9A8389838F8198856EE25DD6F5
:100FE00029813A81820F931F9A8389838B819C8107
:100FF00001969C838B838B819C8183309105BCF20D
:101000008D819E81FC0125818F8198854AE050E089
:10101000622F5ED629813A81820F931F9A8389833A
:1010200089819A8128960FB6F894DEBF0FBECDBF96
:10103000DF91CF9108950F93CF93DF9300D01F924C
:10104000CDB7DEB79A8389837C836B8389819A814C
:101050008130910569F48B819C818F3F2FEF92073E
:1010600039F400E020E040E060E088EB94E057DFF6
:101070000F900F900F900F90DF91CF910F910895E7
:10108000CF93DF93CDB7DEB76FEF7FEF81E090E0D6
:10109000D2DFDF91CF910895CF93DF93CDB7DEB745
:1010A000DF91CF910895CF93DF93CDB7DEB70E9444
:1010B0001513F2DFB4D2EED645D787E391E000975F
:1010C00009F0D5D8F9CFCF92EF92FF920F931F93EB
:1010D000CF93DF93CDB7DEB72D970FB6F894DEBF71
:1010E0000FBECDBF9A8389837C836B835E834D83E0
:1010F00038872F83E986FA860B871C87CD868D85F6
:10110000882F90E08230910521F08330910561F0C5
:1011100016C089819A81FC018489282F2D7F8981BD
:101120009A81FC01248B0BC089819A81FC018489FE
:10113000282F226089819A81FC01248B00008981FB
:101140009A81FC011182108289819A81FC011382AB
:10115000128289819A8104962B813C81B9010E9477
:10116000601589819A81FC018489282F2E7F8981CD
:101170009A81FC01248B89819A812D813E81FC0119
:10118000368B258B89819A812F813885FC01308FA0
:10119000278B89819A81FC0111A212A213A214A2A9
:1011A00089819A81FC01158E168E178E10A22981D5
:1011B0003A8189859A85AB85BC85F901818F928FAB
:1011C000A38FB48F2D960FB6F894DEBF0FBECDBFA0
:1011D000DF91CF911F910F91FF90EF90CF900895E5
:1011E000CF92DF92EF92FF92CF93DF93CDB7DEB72E
:1011F00027970FB6F894DEBF0FBECDBF9F838E83B7
:101200008E819F81FC018489882F90E081709927CD
:10121000009721F48E819F81009711F480E05DC0DA
:101220008E819F81FC01C18CD28CE38CF48C01D225
:10123000BC018E819F814D96A701960103D211D3E7
:101240008B8383EE94E1E9D39A83898383EE94E1DF
:10125000D5D39D838C838E819F8137D41DC08E8191
:101260009F819C01235E3F4F89819A814D96B901F0
:101270004FD2813051F489819A81FC018081918122
:101280002E813F81B9015FD40EC089819A81FC0112
:10129000828193819A83898329813A818C819D817E
:1012A00028173907E1F629813A818C819D81281719
:1012B000390731F48E819F81BC0183EE94E1D1D353
:1012C0008E819F81FC018489282F21608E819F81DE
:1012D000FC01248B8B81D5D281E027960FB6F89440
:1012E000DEBF0FBECDBFDF91CF91FF90EF90DF90BB
:1012F000CF900895CF93DF93CDB7DEB729970FB680
:10130000F894DEBF0FBECDBF83EE94E186D39A83FF
:10131000898383EE94E172D39C838B8359C089D1F6
:101320009E838D8389819A814D9698878F832F81A3
:1013300038858D819E81B901EBD188230CF447C09B
:1013400090D2898789819A81C0D389859AD28981EF
:101350009A81FC012589368989819A81FC018789D6
:10136000908DF901199589819A81FC018489882FD2
:1013700090E0827099270097C1F089819A81FC01E1
:101380008489882F90E081709927009771F0898176
:101390009A81FC018489282F2E7F89819A81FC0102
:1013A000248B89819A811CDF0AC089819A81FC0182
:1013B0008489282F2E7F89819A81FC01248B898141
:1013C0009A81FC01828193819A83898301C008C03C
:1013D00029813A818B819C812817390709F09FCF99
:1013E00029960FB6F894DEBF0FBECDBFDF91CF9127
:1013F0000895CF93DF93CDB7DEB728970FB6F89453
:10140000DEBF0FBECDBF98878F838F819885FC018B
:10141000828193819E838D838091DF049091E0048B
:101420009A8389838FED94E09C838B830BC08981A1
:101430009A819C838B8389819A81FC01808191812F
:101440009A83898389819A81009751F089819A8151
:10145000FC01228133818D819E812817390738F361
:101460008F81988529813A81FC01318320838B818A
:101470009C812F813885FC013183208328960FB60B
:10148000F894DEBF0FBECDBFDF91CF910895CF930B
:10149000DF931F921F92CDB7DEB783EE94E09A835D
:1014A000898389819A8120E030E1FC0133832283A2
:1014B00089819A81FC011182108289819A8190939D
:1014C000E0048093DF041092E2041092E1040F9094
:1014D0000F90DF91CF910895CF93DF93CDB7DEB713
:1014E0002C970FB6F894DEBF0FBECDBF9C878B87BD
:1014F0001A8219828091BE04882321F4C8DF81E01A
:101500008093BE048B859C85009719F489819A810C
:1015100073C08B859C85049698878F838FED94E0AC
:101520009C838B838091DF049091E0049E838D8364
:101530000BC08D819E819C838B838D819E81FC015C
:10154000808191819E838D838D819E81009751F052
:101550008D819E81FC01228133818F81988528179E
:10156000390738F38D819E81009709F443C084E0E8
:1015700090E02D813E81820F931F9A8389838D8114
:101580009E81FC01208131818B819C81FC01318312
:1015900020838D819E81FC012281338184E090E053
:1015A000AC01440F551F8F819885840F951F8217BA
:1015B000930700F52D813E818F819885820F931FBF
:1015C0009A8789878D819E81FC01228133818F8159
:1015D0009885281B390B89859A85FC0133832283E2
:1015E0008D819E812F813885FC01338322838985FB
:1015F0009A85FFDE89819A812C960FB6F894DEBF1A
:101600000FBECDBFDF91CF910895CF93DF93CDB7BC
:10161000DEB783EE94E1D7D1DF91CF910895CF93D8
:10162000DF93CDB7DEB70DD1F0DFF3D0DF91CF91EF
:101630000895CF93DF93CDB7DEB787EE94E1DF91C6
:10164000CF910895CF93DF93CDB7DEB728970FB62C
:10165000F894DEBF0FBECDBF9A8389837C836B83F2
:101660002D833E834F8358878B819C81FC0124818D
:101670003581468157818D819E81AF81B885820FEA
:10168000931FA41FB51F29813A81F9018483958393
:10169000A683B7838B819C81FC0180819181A2818B
:1016A000B38129813A81F90180839183A283B38335
:1016B0008B819C81FC0184819581A681B7819C01ED
:1016C000AD0120953095409550958D819E81AF81DB
:1016D000B885281739074A075B0788F489819A81FA
:1016E000FC0180819181A281B3810196A11DB11D70
:1016F00029813A81F90180839183A283B38328965B
:101700000FB6F894DEBF0FBECDBFDF91CF91089525
:10171000CF93DF93CDB7DEB765970FB6F894DEBFF2
:101720000FBECDBF9B8B8A8B7D8B6C8B19828A8978
:101730009B89FC0180819181A281B3818A839B83F3
:10174000AC83BD838C899D89FC0180819181A281BC
:10175000B3818E839F83A887B9878A899B89FC017F
:1017600084819581A681B7818A879B87AC87BD8755
:101770008C899D89FC0184819581A681B7818E87A2
:101780009F87A88BB98B2A813B814C815D818E819B
:101790009F81A885B98582179307A407B50710F420
:1017A00081E089832A813B814C815D818E819F818B
:1017B000A885B985281739074A075B0710F48FEF0A
:1017C00089832A853B854C855D858E859F85A88983
:1017D000B98982179307A407B50710F481E08983BC
:1017E0002A853B854C855D858E859F85A889B9892D
:1017F000281739074A075B0710F48FEF898389811F
:1018000065960FB6F894DEBF0FBECDBFDF91CF91C6
:101810000895CF93DF93CDB7DEB71092EB141092FB
:10182000EC141092ED141092EE141092E714109232
:10183000E8141092E9141092EA146CD0DF91CF9161
:101840000895CF93DF93CDB7DEB7F894DF91CF91B2
:101850000895CF93DF93CDB7DEB77894DF91CF9122
:101860000895CF93DF931F92CDB7DEB78FE590E059
:10187000FC0180818983E5DF89810F90DF91CF9121
:101880000895CF93DF931F92CDB7DEB789838FE59D
:1018900090E02981FC0120830F90DF91CF91089582
:1018A0001F920F9200905F000F92112400905B0036
:1018B0000F922F933F934F935F936F937F938F93E9
:1018C0009F93AF93BF93EF93FF93CF93DF93CDB7E6
:1018D000DEB721E030E040E050E067EE74E187EEF3
:1018E00094E1B0DE07DDDF91CF91FF91EF91BF91E1
:1018F000AF919F918F917F916F915F914F913F91A8
:101900002F910F9000925B000F9000925F000F905C
:101910001F901895CF93DF9300D01F92CDB7DEB7FD
:1019200088EE93E0A0E0B0E089839A83AB83BC8328
:1019300089819A81AB81BC81892F9A2FAB2FBB27DC
:1019400089839A83AB83BC8389819A81AB81BC8173
:101950000197A109B10989839A83AB83BC8371DFA5
:1019600080E291E0FC01108281E291E0FC011082B2
:1019700084E291E0FC011182108288E291E02981E9
:101980003A81FC013183208381E291E021E231E060
:10199000F90120812860FC01208381E291E021E2AD
:1019A00031E0F90120812460FC01208383E790E08D
:1019B00022E0FC0120834DDF0F900F900F900F90DD
:1019C000DF91CF910895CF93DF931F921F92CDB7F0
:1019D000DEB79A83898329813A8189819A81FC01C2
:1019E0003383228329813A8189819A81FC01318361
:1019F00020830F900F90DF91CF910895CF93DF93C5
:101A00001F921F92CDB7DEB79A83898389819A810D
:101A10000F900F90DF91CF910895CF93DF931F9296
:101A20001F92CDB7DEB79A83898389819A81FC01A1
:101A3000828193810F900F90DF91CF910895CF9382
:101A4000DF931F921F92CDB7DEB79A838983898176
:101A50009A81FC01808191810F900F90DF91CF914D
:101A60000895CF93DF9300D000D0CDB7DEB79C832D
:101A70008B837E836D838B819C81E1DF9A83898355
:101A800089819A812D813E81FC01338322832B81C0
:101A90003C818D819E81FC01338322838D819E81D7
:101AA00029813A81FC01318320838B819C812D81A6
:101AB0003E81FC013183208326960FB6F894DEBF69
:101AC0000FBECDBFDF91CF910895CF93DF9300D0AC
:101AD0001F92CDB7DEB79C838B838B819C81FC01E9
:101AE000808191819A83898389819A81FC012081F7
:101AF00031818B819C8128173907F1F08B819C8182
:101B0000FC012281338189819A81FC013383228304
:101B10008B819C81FC018281938129813A81FC0126
:101B2000318320838B819C81FC01138212828B8103
:101B30009C81FC01118210820F900F900F900F90EA
:101B4000DF91CF910895CF93DF9300D01F92CDB74F
:101B5000DEB79A8389837C836B8389819A81FC01B8
:101B6000228133818B819C81FC0133832283898193
:101B70009A812B813C81FC01338322838B819C8160
:101B8000FC01828193812B813C81FC013183208384
:101B90008B819C8129813A81FC01318320830F90C4
:101BA0000F900F900F90DF91CF9108950F931F9397
:101BB000CF93DF9300D01F92CDB7DEB79A8389838E
:101BC0007C836B838B819C81009719F480E090E08B
:101BD00014C089819A81FC01808191810296FC0167
:101BE000008111818B819C8172D7AC012B813C815A
:101BF00089819A81B901F80119950F900F900F9082
:101C00000F90DF91CF911F910F910895CF93DF93A4
:101C1000CDB7DEB728970FB6F894DEBF0FBECDBFA5
:101C20009C838B837E836D8358874F831A821982AE
:101C30001CC08B819C81FC0180819181FC012081F1
:101C400031818D819E81AC014F5F5F4F5E834D83FB
:101C5000FC0140818B819C81642FF90119952981B8
:101C60003A81820F931F9A8389838F8198859C0183
:101C70002150310938872F8321E0009709F420E0B3
:101C80002223B9F689819A8128960FB6F894DEBF8F
:101C90000FBECDBFDF91CF910895CF93DF9300D0DA
:101CA000CDB7DEB79A8389836B8389819A81FC01E2
:101CB00080819181FC012081318189819A816B81B0
:101CC000F90119950F900F900F90DF91CF91089522
:101CD000CF93DF9300D01F921F92CDB7DEB79A83C8
:101CE00089836B835D834C838B81882F90E0A0E098
:101CF000B0E02C813D81E981FA81AC01BD01CF01C9
:101D000008D00F900F900F900F900F90DF91CF9110
:101D10000895CF93DF93CDB7DEB728970FB6F89429
:101D2000DEBF0FBECDBF9A8389834B835C836D83F7
:101D30007E8338872F838F819885009779F48981F6
:101D40009A81FC0180819181FC01208131814B814C
:101D500089819A81642FF90119950BC02F818B819C
:101D60009C81AD81BE81E981FA81AC01BD01CF01C9
:101D700009D028960FB6F894DEBF0FBECDBFDF9115
:101D8000CF910895CF93DF93CDB7DEB7E3970FB62A
:101D9000F894DEBF0FBECDBF9AA789A74BA75CA75B
:101DA0006DA77EA72FA780E290E09E01285F3F4F9E
:101DB000820F931F9A83898389819A81FC01108203
:101DC0008FA5823010F48AE08FA78BA59CA5ADA5C6
:101DD000BEA58B839C83AD83BE838FA5282F30E067
:101DE00040E050E08BA59CA5ADA5BEA5BC01CD01F2
:101DF00037D6DA01C9018BA79CA7ADA7BEA79B81E7
:101E00002BA58FA5289F802D1124F92FF81B8F2F2C
:101E10008F8389819A8101979A8389838F818A3000
:101E200020F48F8120E3280F03C08F8127E3280F40
:101E300089819A81FC0120838BA59CA5ADA5BEA5B7
:101E40000097A105B10509F0C0CF29813A8189A584
:101E50009AA5B901ABDEE3960FB6F894DEBF0FBECC
:101E6000CDBFDF91CF910895CF93DF931F921F9243
:101E7000CDB7DEB79A8389838091EF149091F014E7
:101E800001969093F0148093EF140F900F90DF91D0
:101E9000CF910895CF92EF92FF920F931F93CF931C
:101EA000DF93CDB7DEB71092F0141092EF1485E2F5
:101EB00090E012DB9093F4148093F31485E290E0A9
:101EC0000BDB9093F2148093F1142091F314309172
:101ED000F4148091F3149091F4146894CC24C1F814
:101EE00012E3E12EF12C00E010E044E35FE061E05A
:101EF00072E0E9D82091F1143091F2148091F1143C
:101F00009091F2140F2EF3E0CF2EF02D1CE3E12E72
:101F1000F12C00E010E044E35FE068E072E0D3D829
:101F20008091F3149091F4145BD98091F114909105
:101F3000F21456D9DF91CF911F910F91FF90EF903E
:101F4000CF900895CF93DF93CDB7DEB7DF91CF91D8
:101F50000895CF93DF931F92CDB7DEB78983898130
:101F6000882F90E08230910511F18330910534F48F
:101F7000009771F08130910581F045C08430910562
:101F8000C1F18430910584F185309105B9F13BC0F0
:101F90008EE690E0FC01108236C08FE690E02FE6DE
:101FA00030E0F90120812D7FFC0120832CC080E7E7
:101FB00090E020E730E0F90120812D7FFC012083B3
:101FC00080EB90E021E0FC01208381EB90E021EBAD
:101FD00030E0F9012081287F2460FC01208383EB1D
:101FE00090E0FC0110820FC081E790E0FC011082BC
:101FF0000AC082E790E0FC01108205C083E790E010
:10200000FC01108200000F90DF91CF910895CF93D3
:10201000DF93CDB7DEB727970FB6F894DEBF0FBEBC
:10202000CDBF8F838FEF89831B821A8222C08A8162
:102030009B8180509E4FFC0190818F819817A1F465
:102040008A819B81885F9E4F9D838C838C819D813B
:10205000FC0184918E838E8189838A819B8180504B
:102060009E4F2FEFFC0120838A819B8101969B83E9
:102070008A838A819B8118161906CCF6898169DFCB
:1020800060E08F8167D427960FB6F894DEBF0FBE4D
:10209000CDBFDF91CF9108951F920F9200905F0006
:1020A0000F92112400905B000F922F933F934F9358
:1020B0005F936F937F938F939F93AF93BF93EF93B0
:1020C000FF93CF93DF93CDB7DEB78091BF0490919C
:1020D000C004A091C104B091C20421E00097A10501
:1020E000B10509F420E02223A1F14091C5048091BB
:1020F000C3049091C4042091C3043091C404F90135
:1021000020812427FC0120838091BF049091C0048A
:10211000A091C104B091C20421E0181619061A0654
:102120001B060CF020E02223B9F08091BF049091AF
:10213000C004A091C104B091C2040197A109B109E2
:102140008093BF049093C004A093C104B093C204D1
:1021500003C0809100025BDFDF91CF91FF91EF918F
:10216000BF91AF919F918F917F916F915F914F91AF
:102170003F912F910F9000925B000F9000925F00B3
:102180000F901F9018951F920F9200905F000F9272
:10219000112400905B000F922F933F934F935F9316
:1021A0006F937F938F939F93AF93BF93EF93FF931F
:1021B000CF93DF93CDB7DEB78091CA049091CB0463
:1021C000009731F08091CA049091CB04FC011995DD
:1021D000DF91CF91FF91EF91BF91AF919F918F913F
:1021E0007F916F915F914F913F912F910F9000924E
:1021F0005B000F9000925F000F901F9018951F9248
:102200000F9200905F000F92112400905B000F92DC
:102210002F933F934F935F936F937F938F939F93EE
:10222000AF93BF93EF93FF93CF93DF93CDB7DEB719
:102230008091CC049091CD04009731F08091CC0432
:102240009091CD04FC011995DF91CF91FF91EF9111
:10225000BF91AF919F918F917F916F915F914F91BE
:102260003F912F910F9000925B000F9000925F00C2
:102270000F901F9018951F920F9200905F000F9281
:10228000112400905B000F922F933F934F935F9325
:102290006F937F938F939F93AF93BF93EF93FF932E
:1022A000CF93DF93CDB7DEB78091CE049091CF046A
:1022B000009731F08091CE049091CF04FC011995E4
:1022C000DF91CF91FF91EF91BF91AF919F918F914E
:1022D0007F916F915F914F913F912F910F9000925D
:1022E0005B000F9000925F000F901F9018951F9257
:1022F0000F9200905F000F92112400905B000F92EC
:102300002F933F934F935F936F937F938F939F93FD
:10231000AF93BF93EF93FF93CF93DF93CDB7DEB728
:102320008091D0049091D104009731F08091D00435
:102330009091D104FC011995DF91CF91FF91EF911C
:10234000BF91AF919F918F917F916F915F914F91CD
:102350003F912F910F9000925B000F9000925F00D1
:102360000F901F9018951F920F9200905F000F9290
:10237000112400905B000F922F933F934F935F9334
:102380006F937F938F939F93AF93BF93EF93FF933D
:10239000CF93DF93CDB7DEB78091C6049091C70489
:1023A000009731F08091C6049091C704FC01199503
:1023B000DF91CF91FF91EF91BF91AF919F918F915D
:1023C0007F916F915F914F913F912F910F9000926C
:1023D0005B000F9000925F000F901F9018951F9266
:1023E0000F9200905F000F92112400905B000F92FB
:1023F0002F933F934F935F936F937F938F939F930D
:10240000AF93BF93EF93FF93CF93DF93CDB7DEB737
:102410008091C8049091C904009731F08091C8045C
:102420009091C904FC011995DF91CF91FF91EF9133
:10243000BF91AF919F918F917F916F915F914F91DC
:102440003F912F910F9000925B000F9000925F00E0
:102450000F901F9018951F920F9200905F000F929F
:10246000112400905B000F922F933F934F935F9343
:102470006F937F938F939F93AF93BF93EF93FF934C
:10248000CF93DF93CDB7DEB78091D2049091D30480
:10249000009731F08091D2049091D304FC011995FA
:1024A000DF91CF91FF91EF91BF91AF919F918F916C
:1024B0007F916F915F914F913F912F910F9000927B
:1024C0005B000F9000925F000F901F9018951F9275
:1024D0000F9200905F000F92112400905B000F920A
:1024E0002F933F934F935F936F937F938F939F931C
:1024F000AF93BF93EF93FF93CF93DF93CDB7DEB747
:102500008091D4049091D504009731F08091D40447
:102510009091D504FC011995DF91CF91FF91EF9136
:10252000BF91AF919F918F917F916F915F914F91EB
:102530003F912F910F9000925B000F9000925F00EF
:102540000F901F9018951F920F9200905F000F92AE
:1025500011248F939F93AF93BF93CF93DF93CDB706
:10256000DEB72597DEBFCDBF8091DA049091DB0402
:10257000A091DC04B091DD0489839A83AB83BC8392
:102580008091DE048D8389819A81AB81BC814096E4
:10259000A11DB11D89839A83AB83BC838D81805D2E
:1025A0008D838D818D3770F08D818D578D838981DD
:1025B0009A81AB81BC810196A11DB11D89839A834B
:1025C000AB83BC838D818093DE0489819A81AB814A
:1025D000BC818093DA049093DB04A093DC04B09375
:1025E000DD048091D6049091D704A091D804B091D5
:1025F000D9040196A11DB11D8093D6049093D704F0
:10260000A093D804B093D9040F900F900F900F901F
:102610000F90DF91CF91BF91AF919F918F910F90CC
:1026200000925F000F901F901895CF93DF93CDB766
:10263000DEB7789484E490E024E430E0F90120816E
:102640002260FC01208384E490E024E430E0F9017E
:1026500020812160FC01208385E490E025E430E0C6
:10266000F90120812260FC01208385E490E025E4CB
:1026700030E0F90120812160FC0120838EE690E0AA
:102680002EE630E0F90120812160FC01208381E801
:1026900090E0FC01108281E890E021E830E0F9014F
:1026A00020812260FC01208380E890E020E830E077
:1026B000F90120812160FC01208381EB90E021EB76
:1026C00030E0F90120812460FC01208380EB90E060
:1026D00020EB30E0F90120812160FC01208381E9B9
:1026E00090E021E930E0F90120812260FC012083A3
:1026F00081E990E021E930E0F90120812160FC01CD
:10270000208380E990E020E930E0F9012081216018
:10271000FC01208381EA90E021EA30E0F901208188
:102720002260FC01208381EA90E021EA30E0F90197
:1027300020812160FC01208380EA90E020EA30E0E3
:10274000F90120812160FC01208381E291E021E2F6
:1027500031E0F90120812260FC01208381E291E0D7
:1027600021E231E0F90120812160FC01208380E237
:1027700091E020E231E0F90120812160FC01208319
:102780008AE790E02AE730E0F90120812460FC012B
:1027900020838AE790E02AE730E0F9012081226077
:1027A000FC0120838AE790E02AE730E0F9012081EC
:1027B0002160FC0120838AE790E02AE730E0F901FC
:1027C00020812068FC01208381EC90E0FC011082D4
:1027D000DF91CF910895CF93DF931F92CDB7DEB7EE
:1027E00089838981882F90E0AA2797FDA095BA2F29
:1027F00041E050E021E130E0841B950B28173907B8
:1028000008F4A4C08E589F4FFC014CC180E890E0B2
:1028100020E830E0F90120812F77FC01208396C069
:1028200080E890E020E830E0F90120812F7DFC0174
:1028300020838CC080E890E020E830E0F90120811E
:10284000277FFC01208382C084E490E024E430E010
:10285000F90120812F77FC01208378C084E490E087
:1028600024E430E0F90120812F7DFC0120836EC03B
:1028700080EB90E020EB30E0F90120812F77FC0124
:10288000208364C080EB90E020EB30E0F9012081F0
:102890002F7DFC0120835AC080E990E020E930E0E0
:1028A000F90120812F77FC01208350C080E990E05E
:1028B00020E930E0F90120812F7DFC01208346C012
:1028C00080E990E020E930E0F9012081277FFC01D8
:1028D00020833CC080EA90E020EA30E0F9012081CA
:1028E0002F77FC01208332C080EA90E020EA30E0BC
:1028F000F90120812F7DFC01208328C080EA90E02F
:1029000020EA30E0F9012081277FFC0120831EC0EE
:1029100080E291E020E231E0F90120812F77FC0193
:10292000208314C080E291E020E231E0F9012081AF
:102930002F7DFC0120830AC080E291E020E231E09B
:10294000F9012081277FFC01208300000F90DF9197
:10295000CF910895CF93DF93CDB7DEB765970FB6CC
:10296000F894DEBF0FBECDBF8C8B6D8B8C89882F0A
:1029700090E081559E4F9A83898389819A81FC01D9
:1029800084918B838B818C838C89882F90E08759ED
:102990009E4F9E838D838D819E81FC0184918F83C8
:1029A0008F8188878C89882F90E08D5D9E4F9A87D4
:1029B000898789859A85FC0184918B878B858C8793
:1029C0008C85882309F443C08C81882311F08C8185
:1029D00002DF8C85882F90E0880F991F875F9E4FBC
:1029E0009E878D878D859E85FC0125913491CF0131
:1029F000388B2F879E878D878F8598899A8B898BB7
:102A00008FE590E0FC0180818B8BF8948D89882381
:102A100071F489899A89FC018081982F8885809535
:102A20008923282F89899A89FC0120830BC08989F1
:102A30009A89FC0190818885292F282B89899A8978
:102A4000FC0120838FE590E02B89FC0120836596B3
:102A50000FB6F894DEBF0FBECDBFDF91CF910895C2
:102A6000A1E21A2EAA1BBB1BFD010DC0AA1FBB1F92
:102A7000EE1FFF1FA217B307E407F50720F0A21B04
:102A8000B30BE40BF50B661F771F881F991F1A9471
:102A900069F760957095809590959B01AC01BD019B
:102AA000CF010895EE0FFF1F0590F491E02D1994CA
:102AB0000790F691E02D199481E090E0F89410C011
:102AC000FB01DC0101900D920020E1F70895FC016B
:102AD00001900020E9F7809590958E0F9F1F089533
:042AE000F894FFCF98
:102AE400FF616C61726D3100616C61726D32000066
:102AF400000000D602060EEA0139020C027302003D
:102B04000000003101060E310131013101310100B3
:102B1400000000C407000000003101000000003183
:042B240001060E0098
:00000001FF
